S012000044494F5F4472697665722E737265636B
S11300000C942A000C9434000C9434000C943400A6
S11300100C9434000C9434000C9434000C9434008C
S11300200C9434000C9434000C9434000C9434007C
S11300300C9434000C9434000C9434000C9434006C
S11300400C9434000C9434000C9434000C9434005C
S11300500C94340011241FBECFE5D8E0DEBFCDBF21
S11300600E9436000C94AC010C94000060E082E025
S11300700E946C0060E080E00E946000D0E001C05B
S1130080DC2F60E082E00E947701C82F813099F470
S1130090D11111C060E080E00E947701813031F419
S11300A060E080E00E946800DC2F05C060E080E032
S11300B00E946400DC2FC111E4CFD13011F7E0CFEE
S11300C041E00E947000089541E00E94F500089507
S11300D040E00E94F500089540E00E9470000895F9
S11300E0843008F081C0683008F07EC04130B9F532
S11300F0813091F028F08230D9F0833029F12FC07B
S11301009AB321E030E0062E02C0220F331F0A9476
S1130110E2F7292B2ABB23C097B321E030E0062E57
S113012002C0220F331F0A94E2F7292B27BB17C002
S113013094B321E030E0062E02C0220F331F0A944C
S1130140E2F7292B24BB0BC091B321E030E0062E4B
S113015002C0220F331F0A94E2F7292B21BB41115D
S113016043C08130A9F028F0823009F1833071F165
S113017008959AB321E030E002C0220F331F6A953C
S1130180E2F781E0232B09F080E089238ABB0895FC
S113019097B321E030E002C0220F331F6A95E2F7E3
S11301A081E0232B09F080E0892387BB089594B371
S11301B021E030E002C0220F331F6A95E2F781E0AC
S11301C0232B09F080E0892384BB089591B321E0B7
S11301D030E002C0220F331F6A95E2F781E0232B3F
S11301E009F080E0892381BB0895843008F07EC043
S11301F0683008F07BC04130A1F5813089F028F0E7
S11302008230C9F0833011F108952BB381E090E07E
S113021002C0880F991F6A95E2F7822B8BBB089561
S113022028B381E090E002C0880F991F6A95E2F735
S1130230822B88BB089525B381E090E002C0880F2B
S1130240991F6A95E2F7822B85BB089522B381E05A
S113025090E002C0880F991F6A95E2F7822B82BB57
S11302600895411143C08130A9F028F0823009F18A
S1130270833071F108959BB321E030E002C0220F76
S1130280331F6A95E2F781E0232B09F080E089238C
S11302908BBB089598B321E030E002C0220F331FD6
S11302A06A95E2F781E0232B09F080E0892388BB7B
S11302B0089595B321E030E002C0220F331F6A9500
S11302C0E2F781E0232B09F080E0892385BB0895C0
S11302D092B321E030E002C0220F331F6A95E2F7A7
S11302E081E0232B09F080E0892382BB08958430C8
S11302F088F5683078F5813081F028F08230B9F0E3
S11303008330F9F027C089B390E002C095958795B2
S11303106A95E2F7982F91701DC086B390E002C0F1
S1130320959587956A95E2F7982F917013C083B3DA
S113033090E002C0959587956A95E2F7982F9170A1
S113034009C080B390E002C0959587956A95E2F75D
S10F0350982F9170892F0895F894FFCF26
S9030000FC
